{
  "contractName": "Token",
  "abi": [
    {
      "inputs": [],
      "stateMutability": "payable",
      "type": "constructor",
      "payable": true
    },
    {
      "anonymous": false,
      "inputs": [
        {
          "indexed": false,
          "internalType": "uint256",
          "name": "price",
          "type": "uint256"
        }
      ],
      "name": "Price",
      "type": "event"
    },
    {
      "anonymous": false,
      "inputs": [
        {
          "indexed": true,
          "internalType": "address",
          "name": "buyer",
          "type": "address"
        },
        {
          "indexed": false,
          "internalType": "uint256",
          "name": "amount",
          "type": "uint256"
        }
      ],
      "name": "Purchase",
      "type": "event"
    },
    {
      "anonymous": false,
      "inputs": [
        {
          "indexed": true,
          "internalType": "address",
          "name": "seller",
          "type": "address"
        },
        {
          "indexed": false,
          "internalType": "uint256",
          "name": "amount",
          "type": "uint256"
        }
      ],
      "name": "Sell",
      "type": "event"
    },
    {
      "anonymous": false,
      "inputs": [
        {
          "indexed": true,
          "internalType": "address",
          "name": "sender",
          "type": "address"
        },
        {
          "indexed": true,
          "internalType": "address",
          "name": "receiver",
          "type": "address"
        },
        {
          "indexed": false,
          "internalType": "uint256",
          "name": "amount",
          "type": "uint256"
        }
      ],
      "name": "Transfer",
      "type": "event"
    },
    {
      "stateMutability": "nonpayable",
      "type": "fallback"
    },
    {
      "inputs": [],
      "name": "contractBalance",
      "outputs": [
        {
          "internalType": "uint256",
          "name": "",
          "type": "uint256"
        }
      ],
      "stateMutability": "view",
      "type": "function",
      "constant": true
    },
    {
      "inputs": [],
      "name": "owner",
      "outputs": [
        {
          "internalType": "address",
          "name": "",
          "type": "address"
        }
      ],
      "stateMutability": "view",
      "type": "function",
      "constant": true
    },
    {
      "inputs": [],
      "name": "tokenPrice",
      "outputs": [
        {
          "internalType": "uint256",
          "name": "",
          "type": "uint256"
        }
      ],
      "stateMutability": "view",
      "type": "function",
      "constant": true
    },
    {
      "stateMutability": "payable",
      "type": "receive",
      "payable": true
    },
    {
      "inputs": [
        {
          "internalType": "uint256",
          "name": "amount",
          "type": "uint256"
        }
      ],
      "name": "buyToken",
      "outputs": [
        {
          "internalType": "bool",
          "name": "",
          "type": "bool"
        }
      ],
      "stateMutability": "payable",
      "type": "function",
      "payable": true
    },
    {
      "inputs": [
        {
          "internalType": "address",
          "name": "recipient",
          "type": "address"
        },
        {
          "internalType": "uint256",
          "name": "amount",
          "type": "uint256"
        }
      ],
      "name": "transfer",
      "outputs": [
        {
          "internalType": "bool",
          "name": "",
          "type": "bool"
        }
      ],
      "stateMutability": "nonpayable",
      "type": "function"
    },
    {
      "inputs": [
        {
          "internalType": "uint256",
          "name": "amount",
          "type": "uint256"
        }
      ],
      "name": "sellToken",
      "outputs": [
        {
          "internalType": "bool",
          "name": "",
          "type": "bool"
        }
      ],
      "stateMutability": "nonpayable",
      "type": "function"
    },
    {
      "inputs": [
        {
          "internalType": "uint256",
          "name": "price",
          "type": "uint256"
        }
      ],
      "name": "changePrice",
      "outputs": [
        {
          "internalType": "bool",
          "name": "",
          "type": "bool"
        }
      ],
      "stateMutability": "nonpayable",
      "type": "function"
    },
    {
      "inputs": [],
      "name": "getBalance",
      "outputs": [
        {
          "internalType": "uint256",
          "name": "",
          "type": "uint256"
        }
      ],
      "stateMutability": "view",
      "type": "function",
      "constant": true
    }
  ],
  "bytecode": "0x60806040526000600155600060025560006005556000600655600a600755670de0b6b3a764000034146200006a576040517f08c379a0000000000000000000000000000000000000000000000000000000008152600401620000619062000221565b60405180910390fd5b336000806101000a81548173ffffffffffffffffffffffffffffffffffffffff021916908373ffffffffffffffffffffffffffffffffffffffff160217905550620000dc60008054906101000a900473ffffffffffffffffffffffffffffffffffffffff1634620000e260201b60201c565b620002d9565b80600460008473ffffffffffffffffffffffffffffffffffffffff1673ffffffffffffffffffffffffffffffffffffffff16815260200190815260200160002060008282546200013391906200027c565b9250508190555080600560008282546200014e91906200027c565b9250508190555080600160008282546200016991906200027c565b925050819055505050565b600082825260208201905092915050565b7f41732074686520636f6e7472616374206f776e657220796f752061726520726560008201527f71756972656420746f2070726f76696465203120455448206c6971756964697460208201527f7900000000000000000000000000000000000000000000000000000000000000604082015250565b60006200020960418362000174565b9150620002168262000185565b606082019050919050565b600060208201905081810360008301526200023c81620001fa565b9050919050565b6000819050919050565b7f4e487b7100000000000000000000000000000000000000000000000000000000600052601160045260246000fd5b6000620002898262000243565b9150620002968362000243565b9250827fffffffffffffffffffffffffffffffffffffffffffffffffffffffffffffffff03821115620002ce57620002cd6200024d565b5b828201905092915050565b61110380620002e96000396000f3fe60806040526004361061007f5760003560e01c80638b7afe2e1161004e5780638b7afe2e1461016a5780638da5cb5b14610195578063a2b40d19146101c0578063a9059cbb146101fd57610090565b806312065fe0146100a75780632397e4d7146100d25780632d296bf11461010f5780637ff9b5961461013f57610090565b366100905761008e333461023a565b005b34801561009c57600080fd5b506100a56102c6565b005b3480156100b357600080fd5b506100bc610425565b6040516100c99190610a92565b60405180910390f35b3480156100de57600080fd5b506100f960048036038101906100f49190610ade565b61046c565b6040516101069190610b26565b60405180910390f35b61012960048036038101906101249190610ade565b610620565b6040516101369190610b26565b60405180910390f35b34801561014b57600080fd5b50610154610780565b6040516101619190610a92565b60405180910390f35b34801561017657600080fd5b5061017f610786565b60405161018c9190610a92565b60405180910390f35b3480156101a157600080fd5b506101aa61078c565b6040516101b79190610b82565b60405180910390f35b3480156101cc57600080fd5b506101e760048036038101906101e29190610ade565b6107b0565b6040516101f49190610b26565b60405180910390f35b34801561020957600080fd5b50610224600480360381019061021f9190610bc9565b6108da565b6040516102319190610b26565b60405180910390f35b80600460008473ffffffffffffffffffffffffffffffffffffffff1673ffffffffffffffffffffffffffffffffffffffff16815260200190815260200160002060008282546102899190610c38565b9250508190555080600560008282546102a29190610c38565b9250508190555080600160008282546102bb9190610c38565b925050819055505050565b6000600460003373ffffffffffffffffffffffffffffffffffffffff1673ffffffffffffffffffffffffffffffffffffffff1681526020019081526020016000205411610348576040517f08c379a000000000000000000000000000000000000000000000000000000000815260040161033f90610ceb565b60405180910390fd5b6000600554600460003373ffffffffffffffffffffffffffffffffffffffff1673ffffffffffffffffffffffffffffffffffffffff168152602001908152602001600020546103979190610d3a565b9050806006546103a79190610d6b565b600360003373ffffffffffffffffffffffffffffffffffffffff1673ffffffffffffffffffffffffffffffffffffffff16815260200190815260200160002060008282546103f59190610c38565b925050819055508060065461040a9190610d6b565b6006600082825461041b9190610dc5565b9250508190555050565b6000600360003373ffffffffffffffffffffffffffffffffffffffff1673ffffffffffffffffffffffffffffffffffffffff16815260200190815260200160002054905090565b600060018210156104b2576040517f08c379a00000000000000000000000000000000000000000000000000000000081526004016104a990610e6b565b60405180910390fd5b600360003373ffffffffffffffffffffffffffffffffffffffff1673ffffffffffffffffffffffffffffffffffffffff16815260200190815260200160002054821115610534576040517f08c379a000000000000000000000000000000000000000000000000000000000815260040161052b90610ed7565b60405180910390fd5b81600260008282546105469190610dc5565b9250508190555081600360003373ffffffffffffffffffffffffffffffffffffffff1673ffffffffffffffffffffffffffffffffffffffff168152602001908152602001600020600082825461059c9190610dc5565b92505081905550600754826105b19190610d6b565b600160008282546105c29190610dc5565b925050819055503373ffffffffffffffffffffffffffffffffffffffff167f5e5e995ce3133561afceaa51a9a154d5db228cd7525d34df5185582c18d3df098360405161060f9190610a92565b60405180910390a260019050919050565b6000600754826106309190610d6b565b3414610671576040517f08c379a000000000000000000000000000000000000000000000000000000000815260040161066890610f43565b60405180910390fd5b81600260008282546106839190610c38565b925050819055506064605a836106999190610d6b565b6106a39190610d3a565b600360003373ffffffffffffffffffffffffffffffffffffffff1673ffffffffffffffffffffffffffffffffffffffff16815260200190815260200160002060008282546106f19190610c38565b925050819055506064600a836107079190610d6b565b6107119190610d3a565b600660008282546107229190610c38565b925050819055503373ffffffffffffffffffffffffffffffffffffffff167f2499a5330ab0979cc612135e7883ebc3cd5c9f7a8508f042540c34723348f6328360405161076f9190610a92565b60405180910390a260019050919050565b60075481565b60015481565b60008054906101000a900473ffffffffffffffffffffffffffffffffffffffff1681565b60008060009054906101000a900473ffffffffffffffffffffffffffffffffffffffff1673ffffffffffffffffffffffffffffffffffffffff163373ffffffffffffffffffffffffffffffffffffffff1614610841576040517f08c379a000000000000000000000000000000000000000000000000000000000815260040161083890610fd5565b60405180910390fd5b8160025461084f9190610d6b565b6001541015610893576040517f08c379a000000000000000000000000000000000000000000000000000000000815260040161088a90611041565b60405180910390fd5b816007819055507f63f32f63810afda7c9be9643f9fa73ee3f39a9fd8bb35775a2b0d73e48ed9bed826040516108c99190610a92565b60405180910390a160019050919050565b600081600360003373ffffffffffffffffffffffffffffffffffffffff1673ffffffffffffffffffffffffffffffffffffffff16815260200190815260200160002054101561095e576040517f08c379a0000000000000000000000000000000000000000000000000000000008152600401610955906110ad565b60405180910390fd5b81600360003373ffffffffffffffffffffffffffffffffffffffff1673ffffffffffffffffffffffffffffffffffffffff16815260200190815260200160002060008282546109ad9190610dc5565b9250508190555081600360008573ffffffffffffffffffffffffffffffffffffffff1673ffffffffffffffffffffffffffffffffffffffff1681526020019081526020016000206000828254610a039190610c38565b925050819055508273ffffffffffffffffffffffffffffffffffffffff163373ffffffffffffffffffffffffffffffffffffffff167fddf252ad1be2c89b69c2b068fc378daa952ba7f163c4a11628f55a4df523b3ef84604051610a679190610a92565b60405180910390a36001905092915050565b6000819050919050565b610a8c81610a79565b82525050565b6000602082019050610aa76000830184610a83565b92915050565b600080fd5b610abb81610a79565b8114610ac657600080fd5b50565b600081359050610ad881610ab2565b92915050565b600060208284031215610af457610af3610aad565b5b6000610b0284828501610ac9565b91505092915050565b60008115159050919050565b610b2081610b0b565b82525050565b6000602082019050610b3b6000830184610b17565b92915050565b600073ffffffffffffffffffffffffffffffffffffffff82169050919050565b6000610b6c82610b41565b9050919050565b610b7c81610b61565b82525050565b6000602082019050610b976000830184610b73565b92915050565b610ba681610b61565b8114610bb157600080fd5b50565b600081359050610bc381610b9d565b92915050565b60008060408385031215610be057610bdf610aad565b5b6000610bee85828601610bb4565b9250506020610bff85828601610ac9565b9150509250929050565b7f4e487b7100000000000000000000000000000000000000000000000000000000600052601160045260246000fd5b6000610c4382610a79565b9150610c4e83610a79565b9250827fffffffffffffffffffffffffffffffffffffffffffffffffffffffffffffffff03821115610c8357610c82610c09565b5b828201905092915050565b600082825260208201905092915050565b7f596f7520617265206e6f742061206c69717569646974792070726f7669646572600082015250565b6000610cd5602083610c8e565b9150610ce082610c9f565b602082019050919050565b60006020820190508181036000830152610d0481610cc8565b9050919050565b7f4e487b7100000000000000000000000000000000000000000000000000000000600052601260045260246000fd5b6000610d4582610a79565b9150610d5083610a79565b925082610d6057610d5f610d0b565b5b828204905092915050565b6000610d7682610a79565b9150610d8183610a79565b9250817fffffffffffffffffffffffffffffffffffffffffffffffffffffffffffffffff0483118215151615610dba57610db9610c09565b5b828202905092915050565b6000610dd082610a79565b9150610ddb83610a79565b925082821015610dee57610ded610c09565b5b828203905092915050565b7f50726f7669646520706f73697469766520616d6f756e74206f6620746f6b656e60008201527f7321000000000000000000000000000000000000000000000000000000000000602082015250565b6000610e55602283610c8e565b9150610e6082610df9565b604082019050919050565b60006020820190508181036000830152610e8481610e48565b9050919050565b7f4e6f7420656e6f7567682062616c616e63652173000000000000000000000000600082015250565b6000610ec1601483610c8e565b9150610ecc82610e8b565b602082019050919050565b60006020820190508181036000830152610ef081610eb4565b9050919050565b7f596f75722066756e647320617265206e6f742073756666696369656e74000000600082015250565b6000610f2d601d83610c8e565b9150610f3882610ef7565b602082019050919050565b60006020820190508181036000830152610f5c81610f20565b9050919050565b7f546869732066756e6374696f6e206973207265737472696374656420746f207460008201527f686520636f6e74726163742773206f776e657200000000000000000000000000602082015250565b6000610fbf603383610c8e565b9150610fca82610f63565b604082019050919050565b60006020820190508181036000830152610fee81610fb2565b9050919050565b7f4e6f7420656e6f756768206c6971756964697479000000000000000000000000600082015250565b600061102b601483610c8e565b915061103682610ff5565b602082019050919050565b6000602082019050818103600083015261105a8161101e565b9050919050565b7f4e6f7420656e6f7567682062616c616e63650000000000000000000000000000600082015250565b6000611097601283610c8e565b91506110a282611061565b602082019050919050565b600060208201905081810360008301526110c68161108a565b905091905056fea26469706673582212201068ed22d1932abe90dd48df86da4c2e84fba1babcec44e0ffd2513daa88cc0a64736f6c634300080a0033",
  "immutableReferences": {},
  "source": "// SPDX-License-Identifier: MIT\npragma solidity >=0.4.22 <0.9.0;\n\ncontract Token {\n    address public owner;\n    uint256 public contractBalance = 0;\n    uint256 private circulatingTokens = 0;\n\n    mapping(address => uint256) private balances;\n    mapping(address => uint256) private liquidityProviders;\n    uint256 private totalLiquidity = 0;\n    uint256 private rewardsPool = 0;\n\n    uint256 public tokenPrice = 10;\n\n    event Purchase(address indexed buyer, uint256 amount);\n    event Sell(address indexed seller, uint256 amount);\n    event Price(uint256 price);\n    event Transfer(\n        address indexed sender,\n        address indexed receiver,\n        uint256 amount\n    );\n\n    constructor() payable {\n        require(\n            msg.value == 1 ether,\n            \"As the contract owner you are required to provide 1 ETH liquidity\"\n        );\n        owner = msg.sender;\n        provideLiquidity(owner, msg.value);\n    }\n\n    function buyToken(uint256 amount) public payable returns (bool) {\n        require(\n            msg.value == amount * tokenPrice,\n            \"Your funds are not sufficient\"\n        );\n        circulatingTokens += amount;\n        balances[msg.sender] += (amount * 90) / 100;\n        rewardsPool += (amount * 10) / 100;\n        emit Purchase(msg.sender, amount);\n        return true;\n    }\n\n    function transfer(address recipient, uint256 amount) public returns (bool) {\n        require(balances[msg.sender] >= amount, \"Not enough balance\");\n        balances[msg.sender] -= amount;\n        balances[recipient] += amount;\n        emit Transfer(msg.sender, recipient, amount);\n        return true;\n    }\n\n    function sellToken(uint256 amount) public returns (bool) {\n        require(amount >= 1, \"Provide positive amount of tokens!\");\n        require(amount <= balances[msg.sender], \"Not enough balance!s\");\n        circulatingTokens -= amount;\n        balances[msg.sender] -= amount;\n        contractBalance -= amount * tokenPrice;\n        // pay receiver here\n        emit Sell(msg.sender, amount);\n        return true;\n    }\n\n    function changePrice(uint256 price) public returns (bool) {\n        require(\n            msg.sender == owner,\n            \"This function is restricted to the contract's owner\"\n        );\n        require(\n            contractBalance >= circulatingTokens * price,\n            \"Not enough liquidity\"\n        );\n\n        tokenPrice = price;\n        emit Price(price);\n        return true;\n    }\n\n    function getBalance() public view returns (uint256) {\n        return balances[msg.sender];\n    }\n\n    function provideLiquidity(address provider, uint256 amount) internal {\n        liquidityProviders[provider] += amount;\n        totalLiquidity += amount;\n        contractBalance += amount;\n    }\n\n    function getReward() internal {\n        require(\n            liquidityProviders[msg.sender] > 0,\n            \"You are not a liquidity provider\"\n        );\n\n        uint256 allowance = liquidityProviders[msg.sender] / totalLiquidity;\n        balances[msg.sender] += rewardsPool * allowance;\n        rewardsPool -= rewardsPool * allowance;\n    }\n\n    receive() external payable {\n        provideLiquidity(msg.sender, msg.value);\n    }\n\n    fallback() external {\n        getReward();\n    }\n}\n",
  "sourcePath": "/Users/erodotos/Desktop/token-sale-ethereum/contracts/Token.sol",
  "compiler": {
    "name": "solc",
    "version": "0.8.10+commit.fc410830.Emscripten.clang"
  },
  "schemaVersion": "3.4.3",
  "updatedAt": "2021-12-23T09:51:59.692Z",
  "networkType": "ethereum",
  "devdoc": {
    "kind": "dev",
    "methods": {},
    "version": 1
  },
  "userdoc": {
    "kind": "user",
    "methods": {},
    "version": 1
  }
}