{
  "contractName": "Token",
  "abi": [
    {
      "inputs": [],
      "stateMutability": "payable",
      "type": "constructor",
      "payable": true
    },
    {
      "anonymous": false,
      "inputs": [
        {
          "indexed": false,
          "internalType": "uint256",
          "name": "price",
          "type": "uint256"
        }
      ],
      "name": "Price",
      "type": "event"
    },
    {
      "anonymous": false,
      "inputs": [
        {
          "indexed": true,
          "internalType": "address",
          "name": "buyer",
          "type": "address"
        },
        {
          "indexed": false,
          "internalType": "uint256",
          "name": "amount",
          "type": "uint256"
        }
      ],
      "name": "Purchase",
      "type": "event"
    },
    {
      "anonymous": false,
      "inputs": [
        {
          "indexed": true,
          "internalType": "address",
          "name": "seller",
          "type": "address"
        },
        {
          "indexed": false,
          "internalType": "uint256",
          "name": "amount",
          "type": "uint256"
        }
      ],
      "name": "Sell",
      "type": "event"
    },
    {
      "anonymous": false,
      "inputs": [
        {
          "indexed": true,
          "internalType": "address",
          "name": "sender",
          "type": "address"
        },
        {
          "indexed": true,
          "internalType": "address",
          "name": "receiver",
          "type": "address"
        },
        {
          "indexed": false,
          "internalType": "uint256",
          "name": "amount",
          "type": "uint256"
        }
      ],
      "name": "Transfer",
      "type": "event"
    },
    {
      "stateMutability": "payable",
      "type": "fallback",
      "payable": true
    },
    {
      "inputs": [],
      "name": "tokenPrice",
      "outputs": [
        {
          "internalType": "uint256",
          "name": "",
          "type": "uint256"
        }
      ],
      "stateMutability": "view",
      "type": "function",
      "constant": true
    },
    {
      "inputs": [
        {
          "internalType": "uint256",
          "name": "amount",
          "type": "uint256"
        }
      ],
      "name": "buyToken",
      "outputs": [
        {
          "internalType": "bool",
          "name": "",
          "type": "bool"
        }
      ],
      "stateMutability": "payable",
      "type": "function",
      "payable": true
    },
    {
      "inputs": [
        {
          "internalType": "address",
          "name": "recipient",
          "type": "address"
        },
        {
          "internalType": "uint256",
          "name": "amount",
          "type": "uint256"
        }
      ],
      "name": "transfer",
      "outputs": [
        {
          "internalType": "bool",
          "name": "",
          "type": "bool"
        }
      ],
      "stateMutability": "nonpayable",
      "type": "function"
    },
    {
      "inputs": [
        {
          "internalType": "uint256",
          "name": "amount",
          "type": "uint256"
        }
      ],
      "name": "sellToken",
      "outputs": [
        {
          "internalType": "bool",
          "name": "",
          "type": "bool"
        }
      ],
      "stateMutability": "nonpayable",
      "type": "function"
    },
    {
      "inputs": [
        {
          "internalType": "uint256",
          "name": "price",
          "type": "uint256"
        }
      ],
      "name": "changePrice",
      "outputs": [
        {
          "internalType": "bool",
          "name": "",
          "type": "bool"
        }
      ],
      "stateMutability": "nonpayable",
      "type": "function"
    },
    {
      "inputs": [],
      "name": "getBalance",
      "outputs": [
        {
          "internalType": "uint256",
          "name": "",
          "type": "uint256"
        }
      ],
      "stateMutability": "view",
      "type": "function",
      "constant": true
    }
  ],
  "bytecode": "0x608060405260006001556000600255600060055560006006556000600755600a6008556064341462000068576040517f08c379a00000000000000000000000000000000000000000000000000000000081526004016200005f906200023b565b60405180910390fd5b336000806101000a81548173ffffffffffffffffffffffffffffffffffffffff021916908373ffffffffffffffffffffffffffffffffffffffff160217905550620000da60008054906101000a900473ffffffffffffffffffffffffffffffffffffffff1634620000e060201b60201c565b620002f3565b80600460008473ffffffffffffffffffffffffffffffffffffffff1673ffffffffffffffffffffffffffffffffffffffff168152602001908152602001600020600082825462000131919062000296565b9250508190555080600660008282546200014c919062000296565b92505081905550806001600082825462000167919062000296565b9250508190555060016005600082825462000183919062000296565b925050819055505050565b600082825260208201905092915050565b7f41732074686520636f6e7472616374206f776e657220796f752061726520726560008201527f71756972656420746f2070726f766964652031303020776569206c697175696460208201527f6974790000000000000000000000000000000000000000000000000000000000604082015250565b6000620002236043836200018e565b915062000230826200019f565b606082019050919050565b60006020820190508181036000830152620002568162000214565b9050919050565b6000819050919050565b7f4e487b7100000000000000000000000000000000000000000000000000000000600052601160045260246000fd5b6000620002a3826200025d565b9150620002b0836200025d565b9250827fffffffffffffffffffffffffffffffffffffffffffffffffffffffffffffffff03821115620002e857620002e762000267565b5b828201905092915050565b61146180620003036000396000f3fe6080604052600436106100595760003560e01c806312065fe01461007d5780632397e4d7146100a85780632d296bf1146100e55780637ff9b59614610115578063a2b40d1914610140578063a9059cbb1461017d5761005a565b5b60003411156100725761006d33346101ba565b61007b565b61007a610260565b5b005b34801561008957600080fd5b50610092610435565b60405161009f9190610bb9565b60405180910390f35b3480156100b457600080fd5b506100cf60048036038101906100ca9190610c05565b61047c565b6040516100dc9190610c4d565b60405180910390f35b6100ff60048036038101906100fa9190610c05565b6106fc565b60405161010c9190610c4d565b60405180910390f35b34801561012157600080fd5b5061012a6108d1565b6040516101379190610bb9565b60405180910390f35b34801561014c57600080fd5b5061016760048036038101906101629190610c05565b6108d7565b6040516101749190610c4d565b60405180910390f35b34801561018957600080fd5b506101a4600480360381019061019f9190610cc6565b610a01565b6040516101b19190610c4d565b60405180910390f35b80600460008473ffffffffffffffffffffffffffffffffffffffff1673ffffffffffffffffffffffffffffffffffffffff16815260200190815260200160002060008282546102099190610d35565b9250508190555080600660008282546102229190610d35565b92505081905550806001600082825461023b9190610d35565b925050819055506001600560008282546102559190610d35565b925050819055505050565b6064600460003373ffffffffffffffffffffffffffffffffffffffff1673ffffffffffffffffffffffffffffffffffffffff16815260200190815260200160002054146102e2576040517f08c379a00000000000000000000000000000000000000000000000000000000081526004016102d990610de8565b60405180910390fd5b60006005546007546102f49190610e37565b14610334576040517f08c379a000000000000000000000000000000000000000000000000000000000815260040161032b90610eda565b60405180910390fd5b60006064600654600460003373ffffffffffffffffffffffffffffffffffffffff1673ffffffffffffffffffffffffffffffffffffffff168152602001908152602001600020546103859190610efa565b61038f9190610f2b565b90506064816007546103a19190610f2b565b6103ab9190610efa565b600360003373ffffffffffffffffffffffffffffffffffffffff1673ffffffffffffffffffffffffffffffffffffffff16815260200190815260200160002060008282546103f99190610d35565b925050819055506064816007546104109190610f2b565b61041a9190610efa565b6007600082825461042b9190610f85565b9250508190555050565b6000600360003373ffffffffffffffffffffffffffffffffffffffff1673ffffffffffffffffffffffffffffffffffffffff16815260200190815260200160002054905090565b600060018210156104c2576040517f08c379a00000000000000000000000000000000000000000000000000000000081526004016104b99061102b565b60405180910390fd5b600360003373ffffffffffffffffffffffffffffffffffffffff1673ffffffffffffffffffffffffffffffffffffffff16815260200190815260200160002054821115610544576040517f08c379a000000000000000000000000000000000000000000000000000000000815260040161053b90611097565b60405180910390fd5b81600260008282546105569190610f85565b9250508190555081600360003373ffffffffffffffffffffffffffffffffffffffff1673ffffffffffffffffffffffffffffffffffffffff16815260200190815260200160002060008282546105ac9190610f85565b92505081905550600854826105c19190610f2b565b600160008282546105d29190610f85565b92505081905550600073__customLib_____________________________63c0ba8f42600854856106039190610f2b565b336040518363ffffffff1660e01b81526004016106219291906110d5565b602060405180830381865af415801561063e573d6000803e3d6000fd5b505050506040513d601f19601f82011682018060405250810190610662919061112a565b9050806106a4576040517f08c379a000000000000000000000000000000000000000000000000000000000815260040161069b906111a3565b60405180910390fd5b3373ffffffffffffffffffffffffffffffffffffffff167f5e5e995ce3133561afceaa51a9a154d5db228cd7525d34df5185582c18d3df09846040516106ea9190610bb9565b60405180910390a26001915050919050565b60006008548261070c9190610f2b565b341461074d576040517f08c379a00000000000000000000000000000000000000000000000000000000081526004016107449061120f565b60405180910390fd5b6000600a8361075c9190610e37565b1461079c576040517f08c379a0000000000000000000000000000000000000000000000000000000008152600401610793906112a1565b60405180910390fd5b81600260008282546107ae9190610d35565b92505081905550600854826107c39190610f2b565b600160008282546107d49190610d35565b925050819055506064605a836107ea9190610f2b565b6107f49190610efa565b600360003373ffffffffffffffffffffffffffffffffffffffff1673ffffffffffffffffffffffffffffffffffffffff16815260200190815260200160002060008282546108429190610d35565b925050819055506064600a836108589190610f2b565b6108629190610efa565b600760008282546108739190610d35565b925050819055503373ffffffffffffffffffffffffffffffffffffffff167f2499a5330ab0979cc612135e7883ebc3cd5c9f7a8508f042540c34723348f632836040516108c09190610bb9565b60405180910390a260019050919050565b60085481565b60008060009054906101000a900473ffffffffffffffffffffffffffffffffffffffff1673ffffffffffffffffffffffffffffffffffffffff163373ffffffffffffffffffffffffffffffffffffffff1614610968576040517f08c379a000000000000000000000000000000000000000000000000000000000815260040161095f90611333565b60405180910390fd5b816002546109769190610f2b565b60015410156109ba576040517f08c379a00000000000000000000000000000000000000000000000000000000081526004016109b19061139f565b60405180910390fd5b816008819055507f63f32f63810afda7c9be9643f9fa73ee3f39a9fd8bb35775a2b0d73e48ed9bed826040516109f09190610bb9565b60405180910390a160019050919050565b600081600360003373ffffffffffffffffffffffffffffffffffffffff1673ffffffffffffffffffffffffffffffffffffffff168152602001908152602001600020541015610a85576040517f08c379a0000000000000000000000000000000000000000000000000000000008152600401610a7c9061140b565b60405180910390fd5b81600360003373ffffffffffffffffffffffffffffffffffffffff1673ffffffffffffffffffffffffffffffffffffffff1681526020019081526020016000206000828254610ad49190610f85565b9250508190555081600360008573ffffffffffffffffffffffffffffffffffffffff1673ffffffffffffffffffffffffffffffffffffffff1681526020019081526020016000206000828254610b2a9190610d35565b925050819055508273ffffffffffffffffffffffffffffffffffffffff163373ffffffffffffffffffffffffffffffffffffffff167fddf252ad1be2c89b69c2b068fc378daa952ba7f163c4a11628f55a4df523b3ef84604051610b8e9190610bb9565b60405180910390a36001905092915050565b6000819050919050565b610bb381610ba0565b82525050565b6000602082019050610bce6000830184610baa565b92915050565b600080fd5b610be281610ba0565b8114610bed57600080fd5b50565b600081359050610bff81610bd9565b92915050565b600060208284031215610c1b57610c1a610bd4565b5b6000610c2984828501610bf0565b91505092915050565b60008115159050919050565b610c4781610c32565b82525050565b6000602082019050610c626000830184610c3e565b92915050565b600073ffffffffffffffffffffffffffffffffffffffff82169050919050565b6000610c9382610c68565b9050919050565b610ca381610c88565b8114610cae57600080fd5b50565b600081359050610cc081610c9a565b92915050565b60008060408385031215610cdd57610cdc610bd4565b5b6000610ceb85828601610cb1565b9250506020610cfc85828601610bf0565b9150509250929050565b7f4e487b7100000000000000000000000000000000000000000000000000000000600052601160045260246000fd5b6000610d4082610ba0565b9150610d4b83610ba0565b9250827fffffffffffffffffffffffffffffffffffffffffffffffffffffffffffffffff03821115610d8057610d7f610d06565b5b828201905092915050565b600082825260208201905092915050565b7f596f7520617265206e6f742061206c69717569646974792070726f7669646572600082015250565b6000610dd2602083610d8b565b9150610ddd82610d9c565b602082019050919050565b60006020820190508181036000830152610e0181610dc5565b9050919050565b7f4e487b7100000000000000000000000000000000000000000000000000000000600052601260045260246000fd5b6000610e4282610ba0565b9150610e4d83610ba0565b925082610e5d57610e5c610e08565b5b828206905092915050565b7f596f752063616e206e6f7420726563656976652072657761726473206e6f772060008201527f28756e66616972206469766973696f6e29000000000000000000000000000000602082015250565b6000610ec4603183610d8b565b9150610ecf82610e68565b604082019050919050565b60006020820190508181036000830152610ef381610eb7565b9050919050565b6000610f0582610ba0565b9150610f1083610ba0565b925082610f2057610f1f610e08565b5b828204905092915050565b6000610f3682610ba0565b9150610f4183610ba0565b9250817fffffffffffffffffffffffffffffffffffffffffffffffffffffffffffffffff0483118215151615610f7a57610f79610d06565b5b828202905092915050565b6000610f9082610ba0565b9150610f9b83610ba0565b925082821015610fae57610fad610d06565b5b828203905092915050565b7f50726f7669646520706f73697469766520616d6f756e74206f6620746f6b656e60008201527f7321000000000000000000000000000000000000000000000000000000000000602082015250565b6000611015602283610d8b565b915061102082610fb9565b604082019050919050565b6000602082019050818103600083015261104481611008565b9050919050565b7f4e6f7420656e6f7567682062616c616e63652173000000000000000000000000600082015250565b6000611081601483610d8b565b915061108c8261104b565b602082019050919050565b600060208201905081810360008301526110b081611074565b9050919050565b6110c081610ba0565b82525050565b6110cf81610c88565b82525050565b60006040820190506110ea60008301856110b7565b6110f760208301846110c6565b9392505050565b61110781610c32565b811461111257600080fd5b50565b600081519050611124816110fe565b92915050565b6000602082840312156111405761113f610bd4565b5b600061114e84828501611115565b91505092915050565b7f5472616e73666572206661696c65642100000000000000000000000000000000600082015250565b600061118d601083610d8b565b915061119882611157565b602082019050919050565b600060208201905081810360008301526111bc81611180565b9050919050565b7f596f75722066756e647320617265206e6f742073756666696369656e74000000600082015250565b60006111f9601d83610d8b565b9150611204826111c3565b602082019050919050565b60006020820190508181036000830152611228816111ec565b9050919050565b7f54686520707572636861736564207175616e746974792073686f756c6420626560008201527f206d756c7469706c65206f662031302100000000000000000000000000000000602082015250565b600061128b603083610d8b565b91506112968261122f565b604082019050919050565b600060208201905081810360008301526112ba8161127e565b9050919050565b7f546869732066756e6374696f6e206973207265737472696374656420746f207460008201527f686520636f6e74726163742773206f776e657200000000000000000000000000602082015250565b600061131d603383610d8b565b9150611328826112c1565b604082019050919050565b6000602082019050818103600083015261134c81611310565b9050919050565b7f4e6f7420656e6f756768206c6971756964697479000000000000000000000000600082015250565b6000611389601483610d8b565b915061139482611353565b602082019050919050565b600060208201905081810360008301526113b88161137c565b9050919050565b7f4e6f7420656e6f7567682062616c616e63650000000000000000000000000000600082015250565b60006113f5601283610d8b565b9150611400826113bf565b602082019050919050565b60006020820190508181036000830152611424816113e8565b905091905056fea26469706673582212201fafe46e38262966f52b525be7af6a24e32a5306659fb3f7fb6da07f68bf56d064736f6c634300080a0033",
  "immutableReferences": {},
  "source": "// SPDX-License-Identifier: MIT\npragma solidity >=0.4.22 <0.9.0;\n\nimport \"./customLib.sol\";\n\ncontract Token {\n    address private owner;\n    uint256 private contractBalance = 0;\n    uint256 private circulatingTokens = 0;\n\n    mapping(address => uint256) private balances;\n    mapping(address => uint256) private liquidityProviders;\n    uint256 private numberOfProviders = 0;\n    uint256 private totalLiquidity = 0;\n    uint256 private rewardsPool = 0;\n\n    uint256 public tokenPrice = 10;\n\n    event Purchase(address indexed buyer, uint256 amount);\n    event Sell(address indexed seller, uint256 amount);\n    event Price(uint256 price);\n    event Transfer(\n        address indexed sender,\n        address indexed receiver,\n        uint256 amount\n    );\n\n    constructor() payable {\n        require(\n            msg.value == 100,\n            \"As the contract owner you are required to provide 100 wei liquidity\"\n        );\n        owner = msg.sender;\n        provideLiquidity(owner, msg.value);\n    }\n\n    function buyToken(uint256 amount) public payable returns (bool) {\n        require(\n            msg.value == amount * tokenPrice,\n            \"Your funds are not sufficient\"\n        );\n        require(\n            amount % 10 == 0,\n            \"The purchased quantity should be multiple of 10!\"\n        );\n        circulatingTokens += amount;\n        contractBalance += amount * tokenPrice;\n        balances[msg.sender] += (amount * 90) / 100;\n        rewardsPool += (amount * 10) / 100;\n        emit Purchase(msg.sender, amount);\n        return true;\n    }\n\n    function transfer(address recipient, uint256 amount) public returns (bool) {\n        require(balances[msg.sender] >= amount, \"Not enough balance\");\n        balances[msg.sender] -= amount;\n        balances[recipient] += amount;\n        emit Transfer(msg.sender, recipient, amount);\n        return true;\n    }\n\n    function sellToken(uint256 amount) public returns (bool) {\n        require(amount >= 1, \"Provide positive amount of tokens!\");\n        require(amount <= balances[msg.sender], \"Not enough balance!s\");\n        circulatingTokens -= amount;\n        balances[msg.sender] -= amount;\n        contractBalance -= amount * tokenPrice;\n        bool success = customLib.customSend(amount * tokenPrice, msg.sender);\n        require(success, \"Transfer failed!\");\n        emit Sell(msg.sender, amount);\n        return true;\n    }\n\n    function changePrice(uint256 price) public returns (bool) {\n        require(\n            msg.sender == owner,\n            \"This function is restricted to the contract's owner\"\n        );\n        require(\n            contractBalance >= circulatingTokens * price,\n            \"Not enough liquidity\"\n        );\n\n        tokenPrice = price;\n        emit Price(price);\n        return true;\n    }\n\n    function getBalance() public view returns (uint256) {\n        return balances[msg.sender];\n    }\n\n    function provideLiquidity(address provider, uint256 amount) internal {\n        liquidityProviders[provider] += amount;\n        totalLiquidity += amount;\n        contractBalance += amount;\n        numberOfProviders += 1;\n    }\n\n    function getReward() internal {\n        require(\n            liquidityProviders[msg.sender] == 100,\n            \"You are not a liquidity provider\"\n        );\n\n        require(\n            rewardsPool % numberOfProviders == 0,\n            \"You can not receive rewards now (unfair division)\"\n        );\n\n        uint256 allowance = (liquidityProviders[msg.sender] / totalLiquidity) *\n            100;\n        balances[msg.sender] += (rewardsPool * allowance) / 100;\n        rewardsPool -= (rewardsPool * allowance) / 100;\n    }\n\n    fallback() external payable {\n        if (msg.value > 0) {\n            provideLiquidity(msg.sender, msg.value);\n        } else {\n            getReward();\n        }\n    }\n}\n",
  "sourcePath": "/Users/erodotos/Desktop/token-sale-ethereum/contracts/Token.sol",
  "compiler": {
    "name": "solc",
    "version": "0.8.10+commit.fc410830.Emscripten.clang"
  },
  "schemaVersion": "3.4.3",
  "updatedAt": "2021-12-24T17:05:04.764Z",
  "networkType": "ethereum",
  "devdoc": {
    "kind": "dev",
    "methods": {},
    "version": 1
  },
  "userdoc": {
    "kind": "user",
    "methods": {},
    "version": 1
  }
}