{
  "contractName": "Token",
  "abi": [
    {
      "inputs": [],
      "stateMutability": "payable",
      "type": "constructor",
      "payable": true
    },
    {
      "anonymous": false,
      "inputs": [
        {
          "indexed": false,
          "internalType": "uint256",
          "name": "price",
          "type": "uint256"
        }
      ],
      "name": "Price",
      "type": "event"
    },
    {
      "anonymous": false,
      "inputs": [
        {
          "indexed": true,
          "internalType": "address",
          "name": "buyer",
          "type": "address"
        },
        {
          "indexed": false,
          "internalType": "uint256",
          "name": "amount",
          "type": "uint256"
        }
      ],
      "name": "Purchase",
      "type": "event"
    },
    {
      "anonymous": false,
      "inputs": [
        {
          "indexed": true,
          "internalType": "address",
          "name": "seller",
          "type": "address"
        },
        {
          "indexed": false,
          "internalType": "uint256",
          "name": "amount",
          "type": "uint256"
        }
      ],
      "name": "Sell",
      "type": "event"
    },
    {
      "anonymous": false,
      "inputs": [
        {
          "indexed": true,
          "internalType": "address",
          "name": "sender",
          "type": "address"
        },
        {
          "indexed": true,
          "internalType": "address",
          "name": "receiver",
          "type": "address"
        },
        {
          "indexed": false,
          "internalType": "uint256",
          "name": "amount",
          "type": "uint256"
        }
      ],
      "name": "Transfer",
      "type": "event"
    },
    {
      "stateMutability": "payable",
      "type": "fallback",
      "payable": true
    },
    {
      "inputs": [],
      "name": "circulatingTokens",
      "outputs": [
        {
          "internalType": "uint256",
          "name": "",
          "type": "uint256"
        }
      ],
      "stateMutability": "view",
      "type": "function",
      "constant": true
    },
    {
      "inputs": [],
      "name": "contractBalance",
      "outputs": [
        {
          "internalType": "uint256",
          "name": "",
          "type": "uint256"
        }
      ],
      "stateMutability": "view",
      "type": "function",
      "constant": true
    },
    {
      "inputs": [],
      "name": "tokenPrice",
      "outputs": [
        {
          "internalType": "uint256",
          "name": "",
          "type": "uint256"
        }
      ],
      "stateMutability": "view",
      "type": "function",
      "constant": true
    },
    {
      "inputs": [
        {
          "internalType": "uint256",
          "name": "amount",
          "type": "uint256"
        }
      ],
      "name": "buyToken",
      "outputs": [
        {
          "internalType": "bool",
          "name": "",
          "type": "bool"
        }
      ],
      "stateMutability": "payable",
      "type": "function",
      "payable": true
    },
    {
      "inputs": [
        {
          "internalType": "address",
          "name": "recipient",
          "type": "address"
        },
        {
          "internalType": "uint256",
          "name": "amount",
          "type": "uint256"
        }
      ],
      "name": "transfer",
      "outputs": [
        {
          "internalType": "bool",
          "name": "",
          "type": "bool"
        }
      ],
      "stateMutability": "nonpayable",
      "type": "function"
    },
    {
      "inputs": [
        {
          "internalType": "uint256",
          "name": "amount",
          "type": "uint256"
        }
      ],
      "name": "sellToken",
      "outputs": [
        {
          "internalType": "bool",
          "name": "",
          "type": "bool"
        }
      ],
      "stateMutability": "nonpayable",
      "type": "function"
    },
    {
      "inputs": [
        {
          "internalType": "uint256",
          "name": "price",
          "type": "uint256"
        }
      ],
      "name": "changePrice",
      "outputs": [
        {
          "internalType": "bool",
          "name": "",
          "type": "bool"
        }
      ],
      "stateMutability": "nonpayable",
      "type": "function"
    },
    {
      "inputs": [],
      "name": "getBalance",
      "outputs": [
        {
          "internalType": "uint256",
          "name": "",
          "type": "uint256"
        }
      ],
      "stateMutability": "view",
      "type": "function",
      "constant": true
    }
  ],
  "bytecode": "0x608060405260006001556000600255600060055560006006556000600755600a6008556064341462000068576040517f08c379a00000000000000000000000000000000000000000000000000000000081526004016200005f906200023b565b60405180910390fd5b336000806101000a81548173ffffffffffffffffffffffffffffffffffffffff021916908373ffffffffffffffffffffffffffffffffffffffff160217905550620000da60008054906101000a900473ffffffffffffffffffffffffffffffffffffffff1634620000e060201b60201c565b620002f3565b80600460008473ffffffffffffffffffffffffffffffffffffffff1673ffffffffffffffffffffffffffffffffffffffff168152602001908152602001600020600082825462000131919062000296565b9250508190555080600660008282546200014c919062000296565b92505081905550806001600082825462000167919062000296565b9250508190555060016005600082825462000183919062000296565b925050819055505050565b600082825260208201905092915050565b7f41732074686520636f6e7472616374206f776e657220796f752061726520726560008201527f71756972656420746f2070726f766964652031303020776569206c697175696460208201527f6974790000000000000000000000000000000000000000000000000000000000604082015250565b6000620002236043836200018e565b915062000230826200019f565b606082019050919050565b60006020820190508181036000830152620002568162000214565b9050919050565b6000819050919050565b7f4e487b7100000000000000000000000000000000000000000000000000000000600052601160045260246000fd5b6000620002a3826200025d565b9150620002b0836200025d565b9250827fffffffffffffffffffffffffffffffffffffffffffffffffffffffffffffffff03821115620002e857620002e762000267565b5b828201905092915050565b61159980620003036000396000f3fe60806040526004361061007f5760003560e01c80638b7afe2e1161004e5780638b7afe2e14610166578063a2b40d1914610191578063a9059cbb146101ce578063ab9d8b8b1461020b57610080565b806312065fe0146100a35780632397e4d7146100ce5780632d296bf11461010b5780637ff9b5961461013b57610080565b5b6000341115610098576100933334610236565b6100a1565b6100a06102dc565b5b005b3480156100af57600080fd5b506100b86104b2565b6040516100c59190610c85565b60405180910390f35b3480156100da57600080fd5b506100f560048036038101906100f09190610cd1565b6104f9565b6040516101029190610d19565b60405180910390f35b61012560048036038101906101209190610cd1565b6107bc565b6040516101329190610d19565b60405180910390f35b34801561014757600080fd5b50610150610991565b60405161015d9190610c85565b60405180910390f35b34801561017257600080fd5b5061017b610997565b6040516101889190610c85565b60405180910390f35b34801561019d57600080fd5b506101b860048036038101906101b39190610cd1565b61099d565b6040516101c59190610d19565b60405180910390f35b3480156101da57600080fd5b506101f560048036038101906101f09190610d92565b610ac7565b6040516102029190610d19565b60405180910390f35b34801561021757600080fd5b50610220610c66565b60405161022d9190610c85565b60405180910390f35b80600460008473ffffffffffffffffffffffffffffffffffffffff1673ffffffffffffffffffffffffffffffffffffffff16815260200190815260200160002060008282546102859190610e01565b92505081905550806006600082825461029e9190610e01565b9250508190555080600160008282546102b79190610e01565b925050819055506001600560008282546102d19190610e01565b925050819055505050565b6064600460003373ffffffffffffffffffffffffffffffffffffffff1673ffffffffffffffffffffffffffffffffffffffff16815260200190815260200160002054101561035f576040517f08c379a000000000000000000000000000000000000000000000000000000000815260040161035690610eb4565b60405180910390fd5b60006005546007546103719190610f03565b146103b1576040517f08c379a00000000000000000000000000000000000000000000000000000000081526004016103a890610fa6565b60405180910390fd5b60006064600654600460003373ffffffffffffffffffffffffffffffffffffffff1673ffffffffffffffffffffffffffffffffffffffff168152602001908152602001600020546104029190610fc6565b61040c9190610ff7565b905060648160075461041e9190610ff7565b6104289190610fc6565b600360003373ffffffffffffffffffffffffffffffffffffffff1673ffffffffffffffffffffffffffffffffffffffff16815260200190815260200160002060008282546104769190610e01565b9250508190555060648160075461048d9190610ff7565b6104979190610fc6565b600760008282546104a89190611051565b9250508190555050565b6000600360003373ffffffffffffffffffffffffffffffffffffffff1673ffffffffffffffffffffffffffffffffffffffff16815260200190815260200160002054905090565b6000600182101561053f576040517f08c379a0000000000000000000000000000000000000000000000000000000008152600401610536906110f7565b60405180910390fd5b600360003373ffffffffffffffffffffffffffffffffffffffff1673ffffffffffffffffffffffffffffffffffffffff168152602001908152602001600020548211156105c1576040517f08c379a00000000000000000000000000000000000000000000000000000000081526004016105b890611163565b60405180910390fd5b60008211610604576040517f08c379a00000000000000000000000000000000000000000000000000000000081526004016105fb906111cf565b60405180910390fd5b81600260008282546106169190611051565b9250508190555081600360003373ffffffffffffffffffffffffffffffffffffffff1673ffffffffffffffffffffffffffffffffffffffff168152602001908152602001600020600082825461066c9190611051565b92505081905550600854826106819190610ff7565b600160008282546106929190611051565b92505081905550600073__customLib_____________________________63c0ba8f42600854856106c39190610ff7565b336040518363ffffffff1660e01b81526004016106e192919061120d565b602060405180830381865af41580156106fe573d6000803e3d6000fd5b505050506040513d601f19601f820116820180604052508101906107229190611262565b905080610764576040517f08c379a000000000000000000000000000000000000000000000000000000000815260040161075b906112db565b60405180910390fd5b3373ffffffffffffffffffffffffffffffffffffffff167f5e5e995ce3133561afceaa51a9a154d5db228cd7525d34df5185582c18d3df09846040516107aa9190610c85565b60405180910390a26001915050919050565b6000600854826107cc9190610ff7565b341461080d576040517f08c379a000000000000000000000000000000000000000000000000000000000815260040161080490611347565b60405180910390fd5b6000600a8361081c9190610f03565b1461085c576040517f08c379a0000000000000000000000000000000000000000000000000000000008152600401610853906113d9565b60405180910390fd5b816002600082825461086e9190610e01565b92505081905550600854826108839190610ff7565b600160008282546108949190610e01565b925050819055506064605a836108aa9190610ff7565b6108b49190610fc6565b600360003373ffffffffffffffffffffffffffffffffffffffff1673ffffffffffffffffffffffffffffffffffffffff16815260200190815260200160002060008282546109029190610e01565b925050819055506064600a836109189190610ff7565b6109229190610fc6565b600760008282546109339190610e01565b925050819055503373ffffffffffffffffffffffffffffffffffffffff167f2499a5330ab0979cc612135e7883ebc3cd5c9f7a8508f042540c34723348f632836040516109809190610c85565b60405180910390a260019050919050565b60085481565b60015481565b60008060009054906101000a900473ffffffffffffffffffffffffffffffffffffffff1673ffffffffffffffffffffffffffffffffffffffff163373ffffffffffffffffffffffffffffffffffffffff1614610a2e576040517f08c379a0000000000000000000000000000000000000000000000000000000008152600401610a259061146b565b60405180910390fd5b81600254610a3c9190610ff7565b6001541015610a80576040517f08c379a0000000000000000000000000000000000000000000000000000000008152600401610a77906114d7565b60405180910390fd5b816008819055507f63f32f63810afda7c9be9643f9fa73ee3f39a9fd8bb35775a2b0d73e48ed9bed82604051610ab69190610c85565b60405180910390a160019050919050565b600081600360003373ffffffffffffffffffffffffffffffffffffffff1673ffffffffffffffffffffffffffffffffffffffff168152602001908152602001600020541015610b4b576040517f08c379a0000000000000000000000000000000000000000000000000000000008152600401610b4290611543565b60405180910390fd5b81600360003373ffffffffffffffffffffffffffffffffffffffff1673ffffffffffffffffffffffffffffffffffffffff1681526020019081526020016000206000828254610b9a9190611051565b9250508190555081600360008573ffffffffffffffffffffffffffffffffffffffff1673ffffffffffffffffffffffffffffffffffffffff1681526020019081526020016000206000828254610bf09190610e01565b925050819055508273ffffffffffffffffffffffffffffffffffffffff163373ffffffffffffffffffffffffffffffffffffffff167fddf252ad1be2c89b69c2b068fc378daa952ba7f163c4a11628f55a4df523b3ef84604051610c549190610c85565b60405180910390a36001905092915050565b60025481565b6000819050919050565b610c7f81610c6c565b82525050565b6000602082019050610c9a6000830184610c76565b92915050565b600080fd5b610cae81610c6c565b8114610cb957600080fd5b50565b600081359050610ccb81610ca5565b92915050565b600060208284031215610ce757610ce6610ca0565b5b6000610cf584828501610cbc565b91505092915050565b60008115159050919050565b610d1381610cfe565b82525050565b6000602082019050610d2e6000830184610d0a565b92915050565b600073ffffffffffffffffffffffffffffffffffffffff82169050919050565b6000610d5f82610d34565b9050919050565b610d6f81610d54565b8114610d7a57600080fd5b50565b600081359050610d8c81610d66565b92915050565b60008060408385031215610da957610da8610ca0565b5b6000610db785828601610d7d565b9250506020610dc885828601610cbc565b9150509250929050565b7f4e487b7100000000000000000000000000000000000000000000000000000000600052601160045260246000fd5b6000610e0c82610c6c565b9150610e1783610c6c565b9250827fffffffffffffffffffffffffffffffffffffffffffffffffffffffffffffffff03821115610e4c57610e4b610dd2565b5b828201905092915050565b600082825260208201905092915050565b7f596f7520617265206e6f742061206c69717569646974792070726f7669646572600082015250565b6000610e9e602083610e57565b9150610ea982610e68565b602082019050919050565b60006020820190508181036000830152610ecd81610e91565b9050919050565b7f4e487b7100000000000000000000000000000000000000000000000000000000600052601260045260246000fd5b6000610f0e82610c6c565b9150610f1983610c6c565b925082610f2957610f28610ed4565b5b828206905092915050565b7f596f752063616e206e6f7420726563656976652072657761726473206e6f772060008201527f28756e66616972206469766973696f6e29000000000000000000000000000000602082015250565b6000610f90603183610e57565b9150610f9b82610f34565b604082019050919050565b60006020820190508181036000830152610fbf81610f83565b9050919050565b6000610fd182610c6c565b9150610fdc83610c6c565b925082610fec57610feb610ed4565b5b828204905092915050565b600061100282610c6c565b915061100d83610c6c565b9250817fffffffffffffffffffffffffffffffffffffffffffffffffffffffffffffffff048311821515161561104657611045610dd2565b5b828202905092915050565b600061105c82610c6c565b915061106783610c6c565b92508282101561107a57611079610dd2565b5b828203905092915050565b7f50726f7669646520706f73697469766520616d6f756e74206f6620746f6b656e60008201527f7321000000000000000000000000000000000000000000000000000000000000602082015250565b60006110e1602283610e57565b91506110ec82611085565b604082019050919050565b60006020820190508181036000830152611110816110d4565b9050919050565b7f4e6f7420656e6f7567682062616c616e63652173000000000000000000000000600082015250565b600061114d601483610e57565b915061115882611117565b602082019050919050565b6000602082019050818103600083015261117c81611140565b9050919050565b7f4e6f7420656e6f7567682062616c616e63652100000000000000000000000000600082015250565b60006111b9601383610e57565b91506111c482611183565b602082019050919050565b600060208201905081810360008301526111e8816111ac565b9050919050565b6111f881610c6c565b82525050565b61120781610d54565b82525050565b600060408201905061122260008301856111ef565b61122f60208301846111fe565b9392505050565b61123f81610cfe565b811461124a57600080fd5b50565b60008151905061125c81611236565b92915050565b60006020828403121561127857611277610ca0565b5b60006112868482850161124d565b91505092915050565b7f5472616e73666572206661696c65642100000000000000000000000000000000600082015250565b60006112c5601083610e57565b91506112d08261128f565b602082019050919050565b600060208201905081810360008301526112f4816112b8565b9050919050565b7f596f75722066756e647320617265206e6f742073756666696369656e74000000600082015250565b6000611331601d83610e57565b915061133c826112fb565b602082019050919050565b6000602082019050818103600083015261136081611324565b9050919050565b7f54686520707572636861736564207175616e746974792073686f756c6420626560008201527f206d756c7469706c65206f662031302100000000000000000000000000000000602082015250565b60006113c3603083610e57565b91506113ce82611367565b604082019050919050565b600060208201905081810360008301526113f2816113b6565b9050919050565b7f546869732066756e6374696f6e206973207265737472696374656420746f207460008201527f686520636f6e74726163742773206f776e657200000000000000000000000000602082015250565b6000611455603383610e57565b9150611460826113f9565b604082019050919050565b6000602082019050818103600083015261148481611448565b9050919050565b7f4e6f7420656e6f756768206c6971756964697479000000000000000000000000600082015250565b60006114c1601483610e57565b91506114cc8261148b565b602082019050919050565b600060208201905081810360008301526114f0816114b4565b9050919050565b7f4e6f7420656e6f7567682062616c616e63650000000000000000000000000000600082015250565b600061152d601283610e57565b9150611538826114f7565b602082019050919050565b6000602082019050818103600083015261155c81611520565b905091905056fea2646970667358221220e03c45bcc0b0519755085dd0006fc9387fb44bf48723efbe530cd0b29cc26a4964736f6c634300080a0033",
  "immutableReferences": {},
  "source": "// SPDX-License-Identifier: MIT\npragma solidity >=0.8.00 <0.9.0;\n\nimport \"./customLib.sol\";\n\ncontract Token {\n    address private owner;\n    uint256 public contractBalance = 0;\n    uint256 public circulatingTokens = 0;\n\n    mapping(address => uint256) private balances;\n    mapping(address => uint256) private liquidityProviders;\n    uint256 private numberOfProviders = 0;\n    uint256 private totalLiquidity = 0;\n    uint256 private rewardsPool = 0;\n\n    uint256 public tokenPrice = 10;\n\n    event Purchase(address indexed buyer, uint256 amount);\n    event Sell(address indexed seller, uint256 amount);\n    event Price(uint256 price);\n    event Transfer(\n        address indexed sender,\n        address indexed receiver,\n        uint256 amount\n    );\n\n    constructor() payable {\n        require(\n            msg.value == 100,\n            \"As the contract owner you are required to provide 100 wei liquidity\"\n        );\n        owner = msg.sender;\n        provideLiquidity(owner, msg.value);\n    }\n\n    function buyToken(uint256 amount) public payable returns (bool) {\n        require(\n            msg.value == amount * tokenPrice,\n            \"Your funds are not sufficient\"\n        );\n        require(\n            amount % 10 == 0,\n            \"The purchased quantity should be multiple of 10!\"\n        );\n        circulatingTokens += amount;\n        contractBalance += amount * tokenPrice;\n        balances[msg.sender] += (amount * 90) / 100;\n        rewardsPool += (amount * 10) / 100;\n        emit Purchase(msg.sender, amount);\n        return true;\n    }\n\n    function transfer(address recipient, uint256 amount) public returns (bool) {\n        require(balances[msg.sender] >= amount, \"Not enough balance\");\n        balances[msg.sender] -= amount;\n        balances[recipient] += amount;\n        emit Transfer(msg.sender, recipient, amount);\n        return true;\n    }\n\n    function sellToken(uint256 amount) public returns (bool) {\n        require(amount >= 1, \"Provide positive amount of tokens!\");\n        require(amount <= balances[msg.sender], \"Not enough balance!s\");\n        require(amount > 0, \"Not enough balance!\");\n        circulatingTokens -= amount;\n        balances[msg.sender] -= amount;\n        contractBalance -= amount * tokenPrice;\n        bool success = customLib.customSend(amount * tokenPrice, msg.sender);\n        require(success, \"Transfer failed!\");\n        emit Sell(msg.sender, amount);\n        return true;\n    }\n\n    function changePrice(uint256 price) public returns (bool) {\n        require(\n            msg.sender == owner,\n            \"This function is restricted to the contract's owner\"\n        );\n        require(\n            contractBalance >= (circulatingTokens * price),\n            \"Not enough liquidity\"\n        );\n\n        tokenPrice = price;\n        emit Price(price);\n        return true;\n    }\n\n    function getBalance() public view returns (uint256) {\n        return balances[msg.sender];\n    }\n\n    function provideLiquidity(address provider, uint256 amount) internal {\n        liquidityProviders[provider] += amount;\n        totalLiquidity += amount;\n        contractBalance += amount;\n        numberOfProviders += 1;\n    }\n\n    function getReward() internal {\n        require(\n            liquidityProviders[msg.sender] >= 100,\n            \"You are not a liquidity provider\"\n        );\n\n        require(\n            rewardsPool % numberOfProviders == 0,\n            \"You can not receive rewards now (unfair division)\"\n        );\n\n        uint256 allowance = (liquidityProviders[msg.sender] / totalLiquidity) *\n            100;\n        balances[msg.sender] += (rewardsPool * allowance) / 100;\n        rewardsPool -= (rewardsPool * allowance) / 100;\n    }\n\n    fallback() external payable {\n        if (msg.value > 0) {\n            provideLiquidity(msg.sender, msg.value);\n        } else {\n            getReward();\n        }\n    }\n}\n",
  "sourcePath": "/Users/erodotos/Desktop/token-sale-ethereum/contracts/Token.sol",
  "compiler": {
    "name": "solc",
    "version": "0.8.10+commit.fc410830.Emscripten.clang"
  },
  "schemaVersion": "3.4.3",
  "updatedAt": "2021-12-27T09:15:21.255Z",
  "networkType": "ethereum",
  "devdoc": {
    "kind": "dev",
    "methods": {},
    "version": 1
  },
  "userdoc": {
    "kind": "user",
    "methods": {},
    "version": 1
  }
}